{
  "contractName": "TestContract",
  "abi": [
    {
      "constant": false,
      "inputs": [
        {
          "name": "mediaHash",
          "type": "string"
        },
        {
          "name": "title",
          "type": "string"
        }
      ],
      "name": "addMedia",
      "outputs": [],
      "payable": false,
      "stateMutability": "nonpayable",
      "type": "function"
    },
    {
      "constant": true,
      "inputs": [
        {
          "name": "mediaHash",
          "type": "string"
        }
      ],
      "name": "getMediaDetByHash",
      "outputs": [
        {
          "name": "creatorAddress",
          "type": "address"
        },
        {
          "name": "title",
          "type": "string"
        }
      ],
      "payable": false,
      "stateMutability": "view",
      "type": "function"
    },
    {
      "constant": true,
      "inputs": [],
      "name": "getAllMediaIds",
      "outputs": [
        {
          "name": "commasepIds",
          "type": "string"
        },
        {
          "name": "count",
          "type": "uint256"
        }
      ],
      "payable": false,
      "stateMutability": "view",
      "type": "function"
    }
  ],
  "bytecode": "0x608060405234801561001057600080fd5b50610cb8806100206000396000f300608060405260043610610057576000357c0100000000000000000000000000000000000000000000000000000000900463ffffffff1680633240fc8f1461005c57806388dc97b51461010b5780639c0a72ad146101a2575b600080fd5b34801561006857600080fd5b50610109600480360381019080803590602001908201803590602001908080601f0160208091040260200160405190810160405280939291908181526020018383808284378201915050505050509192919290803590602001908201803590602001908080601f01602080910402602001604051908101604052809392919081815260200183838082843782019150505050505091929192905050506102b7565b005b34801561011757600080fd5b5061012061052f565b6040518080602001838152602001828103825284818151815260200191508051906020019080838360005b8381101561016657808201518184015260208101905061014b565b50505050905090810190601f1680156101935780820380516001836020036101000a031916815260200191505b50935050505060405180910390f35b3480156101ae57600080fd5b50610209600480360381019080803590602001908201803590602001908080601f016020809104026020016040519081016040528093929190818152602001838380828437820191505050505050919291929050505061062b565b604051808373ffffffffffffffffffffffffffffffffffffffff1673ffffffffffffffffffffffffffffffffffffffff16815260200180602001828103825283818151815260200191508051906020019080838360005b8381101561027b578082015181840152602081019050610260565b50505050905090810190601f1680156102a85780820380516001836020036101000a031916815260200191505b50935050505060405180910390f35b6080604051908101604052808381526020018281526020016001151581526020013373ffffffffffffffffffffffffffffffffffffffff1681525060026000820151816000019080519060200190610310929190610aac565b50602082015181600101908051906020019061032d929190610aac565b5060408201518160020160006101000a81548160ff02191690831515021790555060608201518160020160016101000a81548173ffffffffffffffffffffffffffffffffffffffff021916908373ffffffffffffffffffffffffffffffffffffffff16021790555090505060026000836040518082805190602001908083835b6020831015156103d257805182526020820191506020810190506020830392506103ad565b6001836020036101000a03801982511681845116808217855250505050505090500191505090815260200160405180910390206000820181600001908054600181600116156101000203166002900461042c929190610b2c565b5060018201816001019080546001816001161561010002031660029004610454929190610b2c565b506002820160009054906101000a900460ff168160020160006101000a81548160ff0219169083151502179055506002820160019054906101000a900473ffffffffffffffffffffffffffffffffffffffff168160020160016101000a81548173ffffffffffffffffffffffffffffffffffffffff021916908373ffffffffffffffffffffffffffffffffffffffff1602179055509050506001829080600181540180825580915050906001820390600052602060002001600090919290919091509080519060200190610529929190610bb3565b50505050565b6060600061061d6001805480602002602001604051908101604052809291908181526020016000905b82821015610614578382906000526020600020018054600181600116156101000203166002900480601f0160208091040260200160405190810160405280929190818152602001828054600181600116156101000203166002900480156106005780601f106105d557610100808354040283529160200191610600565b820191906000526020600020905b8154815290600101906020018083116105e357829003601f168201915b505050505081526020019060010190610558565b505050506107ce565b915060018054905090509091565b600060606000836040518082805190602001908083835b6020831015156106675780518252602082019150602081019050602083039250610642565b6001836020036101000a038019825116818451168082178552505050505050905001915050908152602001604051809103902060020160019054906101000a900473ffffffffffffffffffffffffffffffffffffffff1691506000836040518082805190602001908083835b6020831015156106f857805182526020820191506020810190506020830392506106d3565b6001836020036101000a03801982511681845116808217855250505050505090500191505090815260200160405180910390206001018054600181600116156101000203166002900480601f0160208091040260200160405190810160405280929190818152602001828054600181600116156101000203166002900480156107c25780601f10610797576101008083540402835291602001916107c2565b820191906000526020600020905b8154815290600101906020018083116107a557829003601f168201915b50505050509050915091565b6060806000835160405190808252806020026020018201604052801561080e57816020015b6107fb610c33565b8152602001906001900390816107f35790505b509150600090505b83518163ffffffff1610156108795761084b848263ffffffff1681518110151561083c57fe5b906020019060200201516108d2565b828263ffffffff1681518110151561085f57fe5b906020019060200201819052508080600101915050610816565b6108c9826108bb6040805190810160405280600181526020017f7c000000000000000000000000000000000000000000000000000000000000008152506108d2565b61090090919063ffffffff16565b92505050919050565b6108da610c4d565b600060208301905060408051908101604052808451815260200182815250915050919050565b606060008060606000808651141561092a5760206040519081016040528060008152509450610a57565b60018651038760000151029350600092505b855183101561097257858381518110151561095357fe5b906020019060200201516000015184019350828060010193505061093c565b836040519080825280601f01601f1916602001820160405280156109a55781602001602082028038833980820191505090505b509150602082019050600092505b8551831015610a53576109fd8187858151811015156109ce57fe5b906020019060200201516020015188868151811015156109ea57fe5b9060200190602002015160000151610a61565b8583815181101515610a0b57fe5b9060200190602002015160000151810190506001865103831015610a4657610a3c8188602001518960000151610a61565b8660000151810190505b82806001019350506109b3565b8194505b5050505092915050565b60005b602082101515610a895782518452602084019350602083019250602082039150610a64565b6001826020036101000a0390508019835116818551168181178652505050505050565b828054600181600116156101000203166002900490600052602060002090601f016020900481019282601f10610aed57805160ff1916838001178555610b1b565b82800160010185558215610b1b579182015b82811115610b1a578251825591602001919060010190610aff565b5b509050610b289190610c67565b5090565b828054600181600116156101000203166002900490600052602060002090601f016020900481019282601f10610b655780548555610ba2565b82800160010185558215610ba257600052602060002091601f016020900482015b82811115610ba1578254825591600101919060010190610b86565b5b509050610baf9190610c67565b5090565b828054600181600116156101000203166002900490600052602060002090601f016020900481019282601f10610bf457805160ff1916838001178555610c22565b82800160010185558215610c22579182015b82811115610c21578251825591602001919060010190610c06565b5b509050610c2f9190610c67565b5090565b604080519081016040528060008152602001600081525090565b604080519081016040528060008152602001600081525090565b610c8991905b80821115610c85576000816000905550600101610c6d565b5090565b905600a165627a7a7230582075d98b0bd40ffe775b700b74818fe9da3a403cd94b7fc04b641d52511747701f0029",
  "source": "pragma solidity  ^0.4.2;\nimport \"./helper_contracts/strings.sol\";\n\ncontract TestContract {\n\n    using strings for *;\n\n    struct Media{\n        string hash;\n        string title;\n        bool exists;\n        address creator;\n    }\n\n    mapping (string => Media) private mediaList;\n    string[] mediaIds;\n    Media mediaObj;\n\n    /// addMedia content \n    function addMedia(string mediaHash, string title) public {\n        \n        //Creating media object\n        mediaObj = Media({\n            hash : mediaHash,\n            title : title,\n            exists : true,\n            creator : msg.sender\n        });\n        \n        //storing new media into mapping\n        mediaList[mediaHash] = mediaObj;\n        mediaIds.push(mediaHash);\n    }\n    \n    /// fetch content \n    function getMediaDetByHash(string mediaHash) public view returns(address creatorAddress,\n    string title){\n        creatorAddress = mediaList[mediaHash].creator;\n        title = mediaList[mediaHash].title;\n    }\n\n    function getAllMediaIds() public view returns(string commasepIds, uint count){\n        commasepIds = convertArrayToString(mediaIds);\n        count = mediaIds.length;\n    }\n\n\n    function convertArrayToString(string[] arr) internal \n    pure \n    returns(string arrConvertedToStr){\n        var parts = new strings.slice[](arr.length);\n        for (uint32 i = 0; i < arr.length; i++) {\n            parts[i] = arr[i].toSlice();\n        }\n        arrConvertedToStr = \"|\".toSlice().join(parts);   \n    }\n    \n}\n",
  "sourcePath": "/home/vishwasb/vab/projects/training-boilerplate/contracts/TestContract.sol",
  "compiler": {
    "name": "solc",
    "version": "0.4.24+commit.e67f0147.Emscripten.clang"
  },
  "schemaVersion": "2.0.0",
  "updatedAt": "2018-09-22T16:10:13.694Z"
}